{"src/SignalRegistry.sol":{"SignalRegistry":{"abi":[{"anonymous":false,"inputs":[{"indexed":true,"internalType":"bytes32","name":"id","type":"bytes32"},{"indexed":false,"internalType":"int256","name":"actualProfitUSD","type":"int256"}],"name":"SignalExecuted","type":"event"},{"anonymous":false,"inputs":[{"indexed":true,"internalType":"bytes32","name":"id","type":"bytes32"},{"indexed":true,"internalType":"address","name":"publisher","type":"address"},{"indexed":false,"internalType":"string","name":"strategyId","type":"string"}],"name":"SignalPublished","type":"event"},{"inputs":[{"internalType":"bytes32","name":"id","type":"bytes32"}],"name":"getSignal","outputs":[{"components":[{"internalType":"bytes32","name":"id","type":"bytes32"},{"internalType":"address","name":"publisher","type":"address"},{"internalType":"string","name":"strategyId","type":"string"},{"internalType":"address","name":"poolAddress","type":"address"},{"internalType":"uint8","name":"direction","type":"uint8"},{"internalType":"uint256","name":"expectedProfitBps","type":"uint256"},{"internalType":"uint256","name":"confidence","type":"uint256"},{"internalType":"uint256","name":"timestamp","type":"uint256"},{"internalType":"bool","name":"executed","type":"bool"},{"internalType":"int256","name":"actualProfitUSD","type":"int256"}],"internalType":"struct SignalRegistry.Signal","name":"","type":"tuple"}],"stateMutability":"view","type":"function"},{"inputs":[],"name":"getSignalCount","outputs":[{"internalType":"uint256","name":"","type":"uint256"}],"stateMutability":"view","type":"function"},{"inputs":[{"internalType":"address","name":"publisher","type":"address"}],"name":"getSignalsByPublisher","outputs":[{"internalType":"bytes32[]","name":"","type":"bytes32[]"}],"stateMutability":"view","type":"function"},{"inputs":[{"internalType":"bytes32","name":"id","type":"bytes32"},{"internalType":"int256","name":"actualProfitUSD","type":"int256"}],"name":"markExecuted","outputs":[],"stateMutability":"nonpayable","type":"function"},{"inputs":[{"internalType":"bytes32","name":"id","type":"bytes32"},{"internalType":"string","name":"strategyId","type":"string"},{"internalType":"address","name":"pool","type":"address"},{"internalType":"uint8","name":"direction","type":"uint8"},{"internalType":"uint256","name":"expectedProfitBps","type":"uint256"},{"internalType":"uint256","name":"confidence","type":"uint256"}],"name":"publishSignal","outputs":[],"stateMutability":"nonpayable","type":"function"},{"inputs":[{"internalType":"uint256","name":"","type":"uint256"}],"name":"signalIds","outputs":[{"internalType":"bytes32","name":"","type":"bytes32"}],"stateMutability":"view","type":"function"},{"inputs":[{"internalType":"bytes32","name":"","type":"bytes32"}],"name":"signals","outputs":[{"internalType":"bytes32","name":"id","type":"bytes32"},{"internalType":"address","name":"publisher","type":"address"},{"internalType":"string","name":"strategyId","type":"string"},{"internalType":"address","name":"poolAddress","type":"address"},{"internalType":"uint8","name":"direction","type":"uint8"},{"internalType":"uint256","name":"expectedProfitBps","type":"uint256"},{"internalType":"uint256","name":"confidence","type":"uint256"},{"internalType":"uint256","name":"timestamp","type":"uint256"},{"internalType":"bool","name":"executed","type":"bool"},{"internalType":"int256","name":"actualProfitUSD","type":"int256"}],"stateMutability":"view","type":"function"}],"evm":{"bytecode":{"linkReferences":{},"object":"608060405234801561001057600080fd5b5061182e806100206000396000f3fe608060405234801561001057600080fd5b506004361061007d5760003560e01c80638eb63be71161005b5780638eb63be71461010957806396f5e49b14610125578063e8b21a0814610155578063fee923e2146101855761007d565b8063107494eb14610082578063592ee87a146100bb57806366e92db7146100d9575b600080fd5b61009c60048036038101906100979190610bd4565b6101a1565b6040516100b29a99989796959493929190610d4a565b60405180910390f35b6100c36102d7565b6040516100d09190610ded565b60405180910390f35b6100f360048036038101906100ee9190610bd4565b6102e4565b6040516101009190610f86565b60405180910390f35b610123600480360381019061011e9190611091565b6104b9565b005b61013f600480360381019061013a9190611140565b6107cb565b60405161014c919061121c565b60405180910390f35b61016f600480360381019061016a919061123e565b6109dd565b60405161017c919061126b565b60405180910390f35b61019f600480360381019061019a91906112b2565b610a01565b005b60006020528060005260406000206000915090508060000154908060010160009054906101000a900473ffffffffffffffffffffffffffffffffffffffff16908060020180546101f090611321565b80601f016020809104026020016040519081016040528092919081815260200182805461021c90611321565b80156102695780601f1061023e57610100808354040283529160200191610269565b820191906000526020600020905b81548152906001019060200180831161024c57829003601f168201915b5050505050908060030160009054906101000a900473ffffffffffffffffffffffffffffffffffffffff16908060030160149054906101000a900460ff16908060040154908060050154908060060154908060070160009054906101000a900460ff1690806008015490508a565b6000600180549050905090565b6102ec610b0d565b60008083815260200190815260200160002060405180610140016040529081600082015481526020016001820160009054906101000a900473ffffffffffffffffffffffffffffffffffffffff1673ffffffffffffffffffffffffffffffffffffffff1673ffffffffffffffffffffffffffffffffffffffff16815260200160028201805461037a90611321565b80601f01602080910402602001604051908101604052809291908181526020018280546103a690611321565b80156103f35780601f106103c8576101008083540402835291602001916103f3565b820191906000526020600020905b8154815290600101906020018083116103d657829003601f168201915b505050505081526020016003820160009054906101000a900473ffffffffffffffffffffffffffffffffffffffff1673ffffffffffffffffffffffffffffffffffffffff1673ffffffffffffffffffffffffffffffffffffffff1681526020016003820160149054906101000a900460ff1660ff1660ff1681526020016004820154815260200160058201548152602001600682015481526020016007820160009054906101000a900460ff161515151581526020016008820154815250509050919050565b600073ffffffffffffffffffffffffffffffffffffffff1660008089815260200190815260200160002060010160009054906101000a900473ffffffffffffffffffffffffffffffffffffffff1673ffffffffffffffffffffffffffffffffffffffff161461055d576040517f08c379a00000000000000000000000000000000000000000000000000000000081526004016105549061139e565b60405180910390fd5b6040518061014001604052808881526020013373ffffffffffffffffffffffffffffffffffffffff16815260200187878080601f016020809104026020016040519081016040528093929190818152602001838380828437600081840152601f19601f8201169050808301925050505050505081526020018573ffffffffffffffffffffffffffffffffffffffff1681526020018460ff16815260200183815260200182815260200142815260200160001515815260200160008152506000808981526020019081526020016000206000820151816000015560208201518160010160006101000a81548173ffffffffffffffffffffffffffffffffffffffff021916908373ffffffffffffffffffffffffffffffffffffffff16021790555060408201518160020190816106929190611599565b5060608201518160030160006101000a81548173ffffffffffffffffffffffffffffffffffffffff021916908373ffffffffffffffffffffffffffffffffffffffff16021790555060808201518160030160146101000a81548160ff021916908360ff16021790555060a0820151816004015560c0820151816005015560e082015181600601556101008201518160070160006101000a81548160ff021916908315150217905550610120820151816008015590505060018790806001815401808255809150506001900390600052602060002001600090919091909150553373ffffffffffffffffffffffffffffffffffffffff16877f6e58b756a80fcbc03249240bb3f5ffef95c65bf33e44458570a18fe978aa48ed88886040516107ba9291906116a7565b60405180910390a350505050505050565b6060600080600090505b60018054905081101561088a578373ffffffffffffffffffffffffffffffffffffffff16600080600184815481106108105761080f6116cb565b5b9060005260206000200154815260200190815260200160002060010160009054906101000a900473ffffffffffffffffffffffffffffffffffffffff1673ffffffffffffffffffffffffffffffffffffffff160361087757818061087390611729565b9250505b808061088290611729565b9150506107d5565b5060008167ffffffffffffffff8111156108a7576108a66113be565b5b6040519080825280602002602001820160405280156108d55781602001602082028036833780820191505090505b509050600080600090505b6001805490508110156109d1578573ffffffffffffffffffffffffffffffffffffffff166000806001848154811061091b5761091a6116cb565b5b9060005260206000200154815260200190815260200160002060010160009054906101000a900473ffffffffffffffffffffffffffffffffffffffff1673ffffffffffffffffffffffffffffffffffffffff16036109be5760018181548110610987576109866116cb565b5b906000526020600020015483838061099e90611729565b9450815181106109b1576109b06116cb565b5b6020026020010181815250505b80806109c990611729565b9150506108e0565b50819350505050919050565b600181815481106109ed57600080fd5b906000526020600020016000915090505481565b60008060008481526020019081526020016000209050600073ffffffffffffffffffffffffffffffffffffffff168160010160009054906101000a900473ffffffffffffffffffffffffffffffffffffffff1673ffffffffffffffffffffffffffffffffffffffff1603610aaa576040517f08c379a0000000000000000000000000000000000000000000000000000000008152600401610aa1906117bd565b60405180910390fd5b60018160070160006101000a81548160ff021916908315150217905550818160080181905550827fe9e1fb763d1181d822839b60c042ab06725a7641a432446fcc0f79bc7b16f05083604051610b0091906117dd565b60405180910390a2505050565b60405180610140016040528060008019168152602001600073ffffffffffffffffffffffffffffffffffffffff16815260200160608152602001600073ffffffffffffffffffffffffffffffffffffffff168152602001600060ff168152602001600081526020016000815260200160008152602001600015158152602001600081525090565b600080fd5b600080fd5b6000819050919050565b610bb181610b9e565b8114610bbc57600080fd5b50565b600081359050610bce81610ba8565b92915050565b600060208284031215610bea57610be9610b94565b5b6000610bf884828501610bbf565b91505092915050565b610c0a81610b9e565b82525050565b600073ffffffffffffffffffffffffffffffffffffffff82169050919050565b6000610c3b82610c10565b9050919050565b610c4b81610c30565b82525050565b600081519050919050565b600082825260208201905092915050565b60005b83811015610c8b578082015181840152602081019050610c70565b60008484015250505050565b6000601f19601f8301169050919050565b6000610cb382610c51565b610cbd8185610c5c565b9350610ccd818560208601610c6d565b610cd681610c97565b840191505092915050565b600060ff82169050919050565b610cf781610ce1565b82525050565b6000819050919050565b610d1081610cfd565b82525050565b60008115159050919050565b610d2b81610d16565b82525050565b6000819050919050565b610d4481610d31565b82525050565b600061014082019050610d60600083018d610c01565b610d6d602083018c610c42565b8181036040830152610d7f818b610ca8565b9050610d8e606083018a610c42565b610d9b6080830189610cee565b610da860a0830188610d07565b610db560c0830187610d07565b610dc260e0830186610d07565b610dd0610100830185610d22565b610dde610120830184610d3b565b9b9a5050505050505050505050565b6000602082019050610e026000830184610d07565b92915050565b610e1181610b9e565b82525050565b610e2081610c30565b82525050565b600082825260208201905092915050565b6000610e4282610c51565b610e4c8185610e26565b9350610e5c818560208601610c6d565b610e6581610c97565b840191505092915050565b610e7981610ce1565b82525050565b610e8881610cfd565b82525050565b610e9781610d16565b82525050565b610ea681610d31565b82525050565b600061014083016000830151610ec56000860182610e08565b506020830151610ed86020860182610e17565b5060408301518482036040860152610ef08282610e37565b9150506060830151610f056060860182610e17565b506080830151610f186080860182610e70565b5060a0830151610f2b60a0860182610e7f565b5060c0830151610f3e60c0860182610e7f565b5060e0830151610f5160e0860182610e7f565b50610100830151610f66610100860182610e8e565b50610120830151610f7b610120860182610e9d565b508091505092915050565b60006020820190508181036000830152610fa08184610eac565b905092915050565b600080fd5b600080fd5b600080fd5b60008083601f840112610fcd57610fcc610fa8565b5b8235905067ffffffffffffffff811115610fea57610fe9610fad565b5b60208301915083600182028301111561100657611005610fb2565b5b9250929050565b61101681610c30565b811461102157600080fd5b50565b6000813590506110338161100d565b92915050565b61104281610ce1565b811461104d57600080fd5b50565b60008135905061105f81611039565b92915050565b61106e81610cfd565b811461107957600080fd5b50565b60008135905061108b81611065565b92915050565b600080600080600080600060c0888a0312156110b0576110af610b94565b5b60006110be8a828b01610bbf565b975050602088013567ffffffffffffffff8111156110df576110de610b99565b5b6110eb8a828b01610fb7565b965096505060406110fe8a828b01611024565b945050606061110f8a828b01611050565b93505060806111208a828b0161107c565b92505060a06111318a828b0161107c565b91505092959891949750929550565b60006020828403121561115657611155610b94565b5b600061116484828501611024565b91505092915050565b600081519050919050565b600082825260208201905092915050565b6000819050602082019050919050565b60006111a58383610e08565b60208301905092915050565b6000602082019050919050565b60006111c98261116d565b6111d38185611178565b93506111de83611189565b8060005b8381101561120f5781516111f68882611199565b9750611201836111b1565b9250506001810190506111e2565b5085935050505092915050565b6000602082019050818103600083015261123681846111be565b905092915050565b60006020828403121561125457611253610b94565b5b60006112628482850161107c565b91505092915050565b60006020820190506112806000830184610c01565b92915050565b61128f81610d31565b811461129a57600080fd5b50565b6000813590506112ac81611286565b92915050565b600080604083850312156112c9576112c8610b94565b5b60006112d785828601610bbf565b92505060206112e88582860161129d565b9150509250929050565b7f4e487b7100000000000000000000000000000000000000000000000000000000600052602260045260246000fd5b6000600282049050600182168061133957607f821691505b60208210810361134c5761134b6112f2565b5b50919050565b7f7369676e616c2065786973747300000000000000000000000000000000000000600082015250565b6000611388600d83610c5c565b915061139382611352565b602082019050919050565b600060208201905081810360008301526113b78161137b565b9050919050565b7f4e487b7100000000000000000000000000000000000000000000000000000000600052604160045260246000fd5b60008190508160005260206000209050919050565b60006020601f8301049050919050565b600082821b905092915050565b60006008830261144f7fffffffffffffffffffffffffffffffffffffffffffffffffffffffffffffffff82611412565b6114598683611412565b95508019841693508086168417925050509392505050565b6000819050919050565b600061149661149161148c84610cfd565b611471565b610cfd565b9050919050565b6000819050919050565b6114b08361147b565b6114c46114bc8261149d565b84845461141f565b825550505050565b600090565b6114d96114cc565b6114e48184846114a7565b505050565b5b81811015611508576114fd6000826114d1565b6001810190506114ea565b5050565b601f82111561154d5761151e816113ed565b61152784611402565b81016020851015611536578190505b61154a61154285611402565b8301826114e9565b50505b505050565b600082821c905092915050565b600061157060001984600802611552565b1980831691505092915050565b6000611589838361155f565b9150826002028217905092915050565b6115a282610c51565b67ffffffffffffffff8111156115bb576115ba6113be565b5b6115c58254611321565b6115d082828561150c565b600060209050601f83116001811461160357600084156115f1578287015190505b6115fb858261157d565b865550611663565b601f198416611611866113ed565b60005b8281101561163957848901518255600182019150602085019450602081019050611614565b868310156116565784890151611652601f89168261155f565b8355505b6001600288020188555050505b505050505050565b82818337600083830152505050565b60006116868385610c5c565b935061169383858461166b565b61169c83610c97565b840190509392505050565b600060208201905081810360008301526116c281848661167a565b90509392505050565b7f4e487b7100000000000000000000000000000000000000000000000000000000600052603260045260246000fd5b7f4e487b7100000000000000000000000000000000000000000000000000000000600052601160045260246000fd5b600061173482610cfd565b91507fffffffffffffffffffffffffffffffffffffffffffffffffffffffffffffffff8203611766576117656116fa565b5b600182019050919050565b7f7369676e616c206d697373696e67000000000000000000000000000000000000600082015250565b60006117a7600e83610c5c565b91506117b282611771565b602082019050919050565b600060208201905081810360008301526117d68161179a565b9050919050565b60006020820190506117f26000830184610d3b565b9291505056fea26469706673582212200fe93612fd10b0fb01acccdd5997e055568a5b13e19e3384336d57041a67608264736f6c63430008140033","opcodes":"PUSH1 0x80 PUSH1 0x40 MSTORE CALLVALUE DUP1 ISZERO PUSH2 0x10 JUMPI PUSH1 0x0 DUP1 REVERT JUMPDEST POP PUSH2 0x182E DUP1 PUSH2 0x20 PUSH1 0x0 CODECOPY PUSH1 0x0 RETURN INVALID PUSH1 0x80 PUSH1 0x40 MSTORE CALLVALUE DUP1 ISZERO PUSH2 0x10 JUMPI PUSH1 0x0 DUP1 REVERT JUMPDEST POP PUSH1 0x4 CALLDATASIZE LT PUSH2 0x7D JUMPI PUSH1 0x0 CALLDATALOAD PUSH1 0xE0 SHR DUP1 PUSH4 0x8EB63BE7 GT PUSH2 0x5B JUMPI DUP1 PUSH4 0x8EB63BE7 EQ PUSH2 0x109 JUMPI DUP1 PUSH4 0x96F5E49B EQ PUSH2 0x125 JUMPI DUP1 PUSH4 0xE8B21A08 EQ PUSH2 0x155 JUMPI DUP1 PUSH4 0xFEE923E2 EQ PUSH2 0x185 JUMPI PUSH2 0x7D JUMP JUMPDEST DUP1 PUSH4 0x107494EB EQ PUSH2 0x82 JUMPI DUP1 PUSH4 0x592EE87A EQ PUSH2 0xBB JUMPI DUP1 PUSH4 0x66E92DB7 EQ PUSH2 0xD9 JUMPI JUMPDEST PUSH1 0x0 DUP1 REVERT JUMPDEST PUSH2 0x9C PUSH1 0x4 DUP1 CALLDATASIZE SUB DUP2 ADD SWAP1 PUSH2 0x97 SWAP2 SWAP1 PUSH2 0xBD4 JUMP JUMPDEST PUSH2 0x1A1 JUMP JUMPDEST PUSH1 0x40 MLOAD PUSH2 0xB2 SWAP11 SWAP10 SWAP9 SWAP8 SWAP7 SWAP6 SWAP5 SWAP4 SWAP3 SWAP2 SWAP1 PUSH2 0xD4A JUMP JUMPDEST PUSH1 0x40 MLOAD DUP1 SWAP2 SUB SWAP1 RETURN JUMPDEST PUSH2 0xC3 PUSH2 0x2D7 JUMP JUMPDEST PUSH1 0x40 MLOAD PUSH2 0xD0 SWAP2 SWAP1 PUSH2 0xDED JUMP JUMPDEST PUSH1 0x40 MLOAD DUP1 SWAP2 SUB SWAP1 RETURN JUMPDEST PUSH2 0xF3 PUSH1 0x4 DUP1 CALLDATASIZE SUB DUP2 ADD SWAP1 PUSH2 0xEE SWAP2 SWAP1 PUSH2 0xBD4 JUMP JUMPDEST PUSH2 0x2E4 JUMP JUMPDEST PUSH1 0x40 MLOAD PUSH2 0x100 SWAP2 SWAP1 PUSH2 0xF86 JUMP JUMPDEST PUSH1 0x40 MLOAD DUP1 SWAP2 SUB SWAP1 RETURN JUMPDEST PUSH2 0x123 PUSH1 0x4 DUP1 CALLDATASIZE SUB DUP2 ADD SWAP1 PUSH2 0x11E SWAP2 SWAP1 PUSH2 0x1091 JUMP JUMPDEST PUSH2 0x4B9 JUMP JUMPDEST STOP JUMPDEST PUSH2 0x13F PUSH1 0x4 DUP1 CALLDATASIZE SUB DUP2 ADD SWAP1 PUSH2 0x13A SWAP2 SWAP1 PUSH2 0x1140 JUMP JUMPDEST PUSH2 0x7CB JUMP JUMPDEST PUSH1 0x40 MLOAD PUSH2 0x14C SWAP2 SWAP1 PUSH2 0x121C JUMP JUMPDEST PUSH1 0x40 MLOAD DUP1 SWAP2 SUB SWAP1 RETURN JUMPDEST PUSH2 0x16F PUSH1 0x4 DUP1 CALLDATASIZE SUB DUP2 ADD SWAP1 PUSH2 0x16A SWAP2 SWAP1 PUSH2 0x123E JUMP JUMPDEST PUSH2 0x9DD JUMP JUMPDEST PUSH1 0x40 MLOAD PUSH2 0x17C SWAP2 SWAP1 PUSH2 0x126B JUMP JUMPDEST PUSH1 0x40 MLOAD DUP1 SWAP2 SUB SWAP1 RETURN JUMPDEST PUSH2 0x19F PUSH1 0x4 DUP1 CALLDATASIZE SUB DUP2 ADD SWAP1 PUSH2 0x19A SWAP2 SWAP1 PUSH2 0x12B2 JUMP JUMPDEST PUSH2 0xA01 JUMP JUMPDEST STOP JUMPDEST PUSH1 0x0 PUSH1 0x20 MSTORE DUP1 PUSH1 0x0 MSTORE PUSH1 0x40 PUSH1 0x0 KECCAK256 PUSH1 0x0 SWAP2 POP SWAP1 POP DUP1 PUSH1 0x0 ADD SLOAD SWAP1 DUP1 PUSH1 0x1 ADD PUSH1 0x0 SWAP1 SLOAD SWAP1 PUSH2 0x100 EXP SWAP1 DIV PUSH20 0xFFFFFFFFFFFFFFFFFFFFFFFFFFFFFFFFFFFFFFFF AND SWAP1 DUP1 PUSH1 0x2 ADD DUP1 SLOAD PUSH2 0x1F0 SWAP1 PUSH2 0x1321 JUMP JUMPDEST DUP1 PUSH1 0x1F ADD PUSH1 0x20 DUP1 SWAP2 DIV MUL PUSH1 0x20 ADD PUSH1 0x40 MLOAD SWAP1 DUP2 ADD PUSH1 0x40 MSTORE DUP1 SWAP3 SWAP2 SWAP1 DUP2 DUP2 MSTORE PUSH1 0x20 ADD DUP3 DUP1 SLOAD PUSH2 0x21C SWAP1 PUSH2 0x1321 JUMP JUMPDEST DUP1 ISZERO PUSH2 0x269 JUMPI DUP1 PUSH1 0x1F LT PUSH2 0x23E JUMPI PUSH2 0x100 DUP1 DUP4 SLOAD DIV MUL DUP4 MSTORE SWAP2 PUSH1 0x20 ADD SWAP2 PUSH2 0x269 JUMP JUMPDEST DUP3 ADD SWAP2 SWAP1 PUSH1 0x0 MSTORE PUSH1 0x20 PUSH1 0x0 KECCAK256 SWAP1 JUMPDEST DUP2 SLOAD DUP2 MSTORE SWAP1 PUSH1 0x1 ADD SWAP1 PUSH1 0x20 ADD DUP1 DUP4 GT PUSH2 0x24C JUMPI DUP3 SWAP1 SUB PUSH1 0x1F AND DUP3 ADD SWAP2 JUMPDEST POP POP POP POP POP SWAP1 DUP1 PUSH1 0x3 ADD PUSH1 0x0 SWAP1 SLOAD SWAP1 PUSH2 0x100 EXP SWAP1 DIV PUSH20 0xFFFFFFFFFFFFFFFFFFFFFFFFFFFFFFFFFFFFFFFF AND SWAP1 DUP1 PUSH1 0x3 ADD PUSH1 0x14 SWAP1 SLOAD SWAP1 PUSH2 0x100 EXP SWAP1 DIV PUSH1 0xFF AND SWAP1 DUP1 PUSH1 0x4 ADD SLOAD SWAP1 DUP1 PUSH1 0x5 ADD SLOAD SWAP1 DUP1 PUSH1 0x6 ADD SLOAD SWAP1 DUP1 PUSH1 0x7 ADD PUSH1 0x0 SWAP1 SLOAD SWAP1 PUSH2 0x100 EXP SWAP1 DIV PUSH1 0xFF AND SWAP1 DUP1 PUSH1 0x8 ADD SLOAD SWAP1 POP DUP11 JUMP JUMPDEST PUSH1 0x0 PUSH1 0x1 DUP1 SLOAD SWAP1 POP SWAP1 POP SWAP1 JUMP JUMPDEST PUSH2 0x2EC PUSH2 0xB0D JUMP JUMPDEST PUSH1 0x0 DUP1 DUP4 DUP2 MSTORE PUSH1 0x20 ADD SWAP1 DUP2 MSTORE PUSH1 0x20 ADD PUSH1 0x0 KECCAK256 PUSH1 0x40 MLOAD DUP1 PUSH2 0x140 ADD PUSH1 0x40 MSTORE SWAP1 DUP2 PUSH1 0x0 DUP3 ADD SLOAD DUP2 MSTORE PUSH1 0x20 ADD PUSH1 0x1 DUP3 ADD PUSH1 0x0 SWAP1 SLOAD SWAP1 PUSH2 0x100 EXP SWAP1 DIV PUSH20 0xFFFFFFFFFFFFFFFFFFFFFFFFFFFFFFFFFFFFFFFF AND PUSH20 0xFFFFFFFFFFFFFFFFFFFFFFFFFFFFFFFFFFFFFFFF AND PUSH20 0xFFFFFFFFFFFFFFFFFFFFFFFFFFFFFFFFFFFFFFFF AND DUP2 MSTORE PUSH1 0x20 ADD PUSH1 0x2 DUP3 ADD DUP1 SLOAD PUSH2 0x37A SWAP1 PUSH2 0x1321 JUMP JUMPDEST DUP1 PUSH1 0x1F ADD PUSH1 0x20 DUP1 SWAP2 DIV MUL PUSH1 0x20 ADD PUSH1 0x40 MLOAD SWAP1 DUP2 ADD PUSH1 0x40 MSTORE DUP1 SWAP3 SWAP2 SWAP1 DUP2 DUP2 MSTORE PUSH1 0x20 ADD DUP3 DUP1 SLOAD PUSH2 0x3A6 SWAP1 PUSH2 0x1321 JUMP JUMPDEST DUP1 ISZERO PUSH2 0x3F3 JUMPI DUP1 PUSH1 0x1F LT PUSH2 0x3C8 JUMPI PUSH2 0x100 DUP1 DUP4 SLOAD DIV MUL DUP4 MSTORE SWAP2 PUSH1 0x20 ADD SWAP2 PUSH2 0x3F3 JUMP JUMPDEST DUP3 ADD SWAP2 SWAP1 PUSH1 0x0 MSTORE PUSH1 0x20 PUSH1 0x0 KECCAK256 SWAP1 JUMPDEST DUP2 SLOAD DUP2 MSTORE SWAP1 PUSH1 0x1 ADD SWAP1 PUSH1 0x20 ADD DUP1 DUP4 GT PUSH2 0x3D6 JUMPI DUP3 SWAP1 SUB PUSH1 0x1F AND DUP3 ADD SWAP2 JUMPDEST POP POP POP POP POP DUP2 MSTORE PUSH1 0x20 ADD PUSH1 0x3 DUP3 ADD PUSH1 0x0 SWAP1 SLOAD SWAP1 PUSH2 0x100 EXP SWAP1 DIV PUSH20 0xFFFFFFFFFFFFFFFFFFFFFFFFFFFFFFFFFFFFFFFF AND PUSH20 0xFFFFFFFFFFFFFFFFFFFFFFFFFFFFFFFFFFFFFFFF AND PUSH20 0xFFFFFFFFFFFFFFFFFFFFFFFFFFFFFFFFFFFFFFFF AND DUP2 MSTORE PUSH1 0x20 ADD PUSH1 0x3 DUP3 ADD PUSH1 0x14 SWAP1 SLOAD SWAP1 PUSH2 0x100 EXP SWAP1 DIV PUSH1 0xFF AND PUSH1 0xFF AND PUSH1 0xFF AND DUP2 MSTORE PUSH1 0x20 ADD PUSH1 0x4 DUP3 ADD SLOAD DUP2 MSTORE PUSH1 0x20 ADD PUSH1 0x5 DUP3 ADD SLOAD DUP2 MSTORE PUSH1 0x20 ADD PUSH1 0x6 DUP3 ADD SLOAD DUP2 MSTORE PUSH1 0x20 ADD PUSH1 0x7 DUP3 ADD PUSH1 0x0 SWAP1 SLOAD SWAP1 PUSH2 0x100 EXP SWAP1 DIV PUSH1 0xFF AND ISZERO ISZERO ISZERO ISZERO DUP2 MSTORE PUSH1 0x20 ADD PUSH1 0x8 DUP3 ADD SLOAD DUP2 MSTORE POP POP SWAP1 POP SWAP2 SWAP1 POP JUMP JUMPDEST PUSH1 0x0 PUSH20 0xFFFFFFFFFFFFFFFFFFFFFFFFFFFFFFFFFFFFFFFF AND PUSH1 0x0 DUP1 DUP10 DUP2 MSTORE PUSH1 0x20 ADD SWAP1 DUP2 MSTORE PUSH1 0x20 ADD PUSH1 0x0 KECCAK256 PUSH1 0x1 ADD PUSH1 0x0 SWAP1 SLOAD SWAP1 PUSH2 0x100 EXP SWAP1 DIV PUSH20 0xFFFFFFFFFFFFFFFFFFFFFFFFFFFFFFFFFFFFFFFF AND PUSH20 0xFFFFFFFFFFFFFFFFFFFFFFFFFFFFFFFFFFFFFFFF AND EQ PUSH2 0x55D JUMPI PUSH1 0x40 MLOAD PUSH32 0x8C379A000000000000000000000000000000000000000000000000000000000 DUP2 MSTORE PUSH1 0x4 ADD PUSH2 0x554 SWAP1 PUSH2 0x139E JUMP JUMPDEST PUSH1 0x40 MLOAD DUP1 SWAP2 SUB SWAP1 REVERT JUMPDEST PUSH1 0x40 MLOAD DUP1 PUSH2 0x140 ADD PUSH1 0x40 MSTORE DUP1 DUP9 DUP2 MSTORE PUSH1 0x20 ADD CALLER PUSH20 0xFFFFFFFFFFFFFFFFFFFFFFFFFFFFFFFFFFFFFFFF AND DUP2 MSTORE PUSH1 0x20 ADD DUP8 DUP8 DUP1 DUP1 PUSH1 0x1F ADD PUSH1 0x20 DUP1 SWAP2 DIV MUL PUSH1 0x20 ADD PUSH1 0x40 MLOAD SWAP1 DUP2 ADD PUSH1 0x40 MSTORE DUP1 SWAP4 SWAP3 SWAP2 SWAP1 DUP2 DUP2 MSTORE PUSH1 0x20 ADD DUP4 DUP4 DUP1 DUP3 DUP5 CALLDATACOPY PUSH1 0x0 DUP2 DUP5 ADD MSTORE PUSH1 0x1F NOT PUSH1 0x1F DUP3 ADD AND SWAP1 POP DUP1 DUP4 ADD SWAP3 POP POP POP POP POP POP POP DUP2 MSTORE PUSH1 0x20 ADD DUP6 PUSH20 0xFFFFFFFFFFFFFFFFFFFFFFFFFFFFFFFFFFFFFFFF AND DUP2 MSTORE PUSH1 0x20 ADD DUP5 PUSH1 0xFF AND DUP2 MSTORE PUSH1 0x20 ADD DUP4 DUP2 MSTORE PUSH1 0x20 ADD DUP3 DUP2 MSTORE PUSH1 0x20 ADD TIMESTAMP DUP2 MSTORE PUSH1 0x20 ADD PUSH1 0x0 ISZERO ISZERO DUP2 MSTORE PUSH1 0x20 ADD PUSH1 0x0 DUP2 MSTORE POP PUSH1 0x0 DUP1 DUP10 DUP2 MSTORE PUSH1 0x20 ADD SWAP1 DUP2 MSTORE PUSH1 0x20 ADD PUSH1 0x0 KECCAK256 PUSH1 0x0 DUP3 ADD MLOAD DUP2 PUSH1 0x0 ADD SSTORE PUSH1 0x20 DUP3 ADD MLOAD DUP2 PUSH1 0x1 ADD PUSH1 0x0 PUSH2 0x100 EXP DUP2 SLOAD DUP2 PUSH20 0xFFFFFFFFFFFFFFFFFFFFFFFFFFFFFFFFFFFFFFFF MUL NOT AND SWAP1 DUP4 PUSH20 0xFFFFFFFFFFFFFFFFFFFFFFFFFFFFFFFFFFFFFFFF AND MUL OR SWAP1 SSTORE POP PUSH1 0x40 DUP3 ADD MLOAD DUP2 PUSH1 0x2 ADD SWAP1 DUP2 PUSH2 0x692 SWAP2 SWAP1 PUSH2 0x1599 JUMP JUMPDEST POP PUSH1 0x60 DUP3 ADD MLOAD DUP2 PUSH1 0x3 ADD PUSH1 0x0 PUSH2 0x100 EXP DUP2 SLOAD DUP2 PUSH20 0xFFFFFFFFFFFFFFFFFFFFFFFFFFFFFFFFFFFFFFFF MUL NOT AND SWAP1 DUP4 PUSH20 0xFFFFFFFFFFFFFFFFFFFFFFFFFFFFFFFFFFFFFFFF AND MUL OR SWAP1 SSTORE POP PUSH1 0x80 DUP3 ADD MLOAD DUP2 PUSH1 0x3 ADD PUSH1 0x14 PUSH2 0x100 EXP DUP2 SLOAD DUP2 PUSH1 0xFF MUL NOT AND SWAP1 DUP4 PUSH1 0xFF AND MUL OR SWAP1 SSTORE POP PUSH1 0xA0 DUP3 ADD MLOAD DUP2 PUSH1 0x4 ADD SSTORE PUSH1 0xC0 DUP3 ADD MLOAD DUP2 PUSH1 0x5 ADD SSTORE PUSH1 0xE0 DUP3 ADD MLOAD DUP2 PUSH1 0x6 ADD SSTORE PUSH2 0x100 DUP3 ADD MLOAD DUP2 PUSH1 0x7 ADD PUSH1 0x0 PUSH2 0x100 EXP DUP2 SLOAD DUP2 PUSH1 0xFF MUL NOT AND SWAP1 DUP4 ISZERO ISZERO MUL OR SWAP1 SSTORE POP PUSH2 0x120 DUP3 ADD MLOAD DUP2 PUSH1 0x8 ADD SSTORE SWAP1 POP POP PUSH1 0x1 DUP8 SWAP1 DUP1 PUSH1 0x1 DUP2 SLOAD ADD DUP1 DUP3 SSTORE DUP1 SWAP2 POP POP PUSH1 0x1 SWAP1 SUB SWAP1 PUSH1 0x0 MSTORE PUSH1 0x20 PUSH1 0x0 KECCAK256 ADD PUSH1 0x0 SWAP1 SWAP2 SWAP1 SWAP2 SWAP1 SWAP2 POP SSTORE CALLER PUSH20 0xFFFFFFFFFFFFFFFFFFFFFFFFFFFFFFFFFFFFFFFF AND DUP8 PUSH32 0x6E58B756A80FCBC03249240BB3F5FFEF95C65BF33E44458570A18FE978AA48ED DUP9 DUP9 PUSH1 0x40 MLOAD PUSH2 0x7BA SWAP3 SWAP2 SWAP1 PUSH2 0x16A7 JUMP JUMPDEST PUSH1 0x40 MLOAD DUP1 SWAP2 SUB SWAP1 LOG3 POP POP POP POP POP POP POP JUMP JUMPDEST PUSH1 0x60 PUSH1 0x0 DUP1 PUSH1 0x0 SWAP1 POP JUMPDEST PUSH1 0x1 DUP1 SLOAD SWAP1 POP DUP2 LT ISZERO PUSH2 0x88A JUMPI DUP4 PUSH20 0xFFFFFFFFFFFFFFFFFFFFFFFFFFFFFFFFFFFFFFFF AND PUSH1 0x0 DUP1 PUSH1 0x1 DUP5 DUP2 SLOAD DUP2 LT PUSH2 0x810 JUMPI PUSH2 0x80F PUSH2 0x16CB JUMP JUMPDEST JUMPDEST SWAP1 PUSH1 0x0 MSTORE PUSH1 0x20 PUSH1 0x0 KECCAK256 ADD SLOAD DUP2 MSTORE PUSH1 0x20 ADD SWAP1 DUP2 MSTORE PUSH1 0x20 ADD PUSH1 0x0 KECCAK256 PUSH1 0x1 ADD PUSH1 0x0 SWAP1 SLOAD SWAP1 PUSH2 0x100 EXP SWAP1 DIV PUSH20 0xFFFFFFFFFFFFFFFFFFFFFFFFFFFFFFFFFFFFFFFF AND PUSH20 0xFFFFFFFFFFFFFFFFFFFFFFFFFFFFFFFFFFFFFFFF AND SUB PUSH2 0x877 JUMPI DUP2 DUP1 PUSH2 0x873 SWAP1 PUSH2 0x1729 JUMP JUMPDEST SWAP3 POP POP JUMPDEST DUP1 DUP1 PUSH2 0x882 SWAP1 PUSH2 0x1729 JUMP JUMPDEST SWAP2 POP POP PUSH2 0x7D5 JUMP JUMPDEST POP PUSH1 0x0 DUP2 PUSH8 0xFFFFFFFFFFFFFFFF DUP2 GT ISZERO PUSH2 0x8A7 JUMPI PUSH2 0x8A6 PUSH2 0x13BE JUMP JUMPDEST JUMPDEST PUSH1 0x40 MLOAD SWAP1 DUP1 DUP3 MSTORE DUP1 PUSH1 0x20 MUL PUSH1 0x20 ADD DUP3 ADD PUSH1 0x40 MSTORE DUP1 ISZERO PUSH2 0x8D5 JUMPI DUP2 PUSH1 0x20 ADD PUSH1 0x20 DUP3 MUL DUP1 CALLDATASIZE DUP4 CALLDATACOPY DUP1 DUP3 ADD SWAP2 POP POP SWAP1 POP JUMPDEST POP SWAP1 POP PUSH1 0x0 DUP1 PUSH1 0x0 SWAP1 POP JUMPDEST PUSH1 0x1 DUP1 SLOAD SWAP1 POP DUP2 LT ISZERO PUSH2 0x9D1 JUMPI DUP6 PUSH20 0xFFFFFFFFFFFFFFFFFFFFFFFFFFFFFFFFFFFFFFFF AND PUSH1 0x0 DUP1 PUSH1 0x1 DUP5 DUP2 SLOAD DUP2 LT PUSH2 0x91B JUMPI PUSH2 0x91A PUSH2 0x16CB JUMP JUMPDEST JUMPDEST SWAP1 PUSH1 0x0 MSTORE PUSH1 0x20 PUSH1 0x0 KECCAK256 ADD SLOAD DUP2 MSTORE PUSH1 0x20 ADD SWAP1 DUP2 MSTORE PUSH1 0x20 ADD PUSH1 0x0 KECCAK256 PUSH1 0x1 ADD PUSH1 0x0 SWAP1 SLOAD SWAP1 PUSH2 0x100 EXP SWAP1 DIV PUSH20 0xFFFFFFFFFFFFFFFFFFFFFFFFFFFFFFFFFFFFFFFF AND PUSH20 0xFFFFFFFFFFFFFFFFFFFFFFFFFFFFFFFFFFFFFFFF AND SUB PUSH2 0x9BE JUMPI PUSH1 0x1 DUP2 DUP2 SLOAD DUP2 LT PUSH2 0x987 JUMPI PUSH2 0x986 PUSH2 0x16CB JUMP JUMPDEST JUMPDEST SWAP1 PUSH1 0x0 MSTORE PUSH1 0x20 PUSH1 0x0 KECCAK256 ADD SLOAD DUP4 DUP4 DUP1 PUSH2 0x99E SWAP1 PUSH2 0x1729 JUMP JUMPDEST SWAP5 POP DUP2 MLOAD DUP2 LT PUSH2 0x9B1 JUMPI PUSH2 0x9B0 PUSH2 0x16CB JUMP JUMPDEST JUMPDEST PUSH1 0x20 MUL PUSH1 0x20 ADD ADD DUP2 DUP2 MSTORE POP POP JUMPDEST DUP1 DUP1 PUSH2 0x9C9 SWAP1 PUSH2 0x1729 JUMP JUMPDEST SWAP2 POP POP PUSH2 0x8E0 JUMP JUMPDEST POP DUP2 SWAP4 POP POP POP POP SWAP2 SWAP1 POP JUMP JUMPDEST PUSH1 0x1 DUP2 DUP2 SLOAD DUP2 LT PUSH2 0x9ED JUMPI PUSH1 0x0 DUP1 REVERT JUMPDEST SWAP1 PUSH1 0x0 MSTORE PUSH1 0x20 PUSH1 0x0 KECCAK256 ADD PUSH1 0x0 SWAP2 POP SWAP1 POP SLOAD DUP2 JUMP JUMPDEST PUSH1 0x0 DUP1 PUSH1 0x0 DUP5 DUP2 MSTORE PUSH1 0x20 ADD SWAP1 DUP2 MSTORE PUSH1 0x20 ADD PUSH1 0x0 KECCAK256 SWAP1 POP PUSH1 0x0 PUSH20 0xFFFFFFFFFFFFFFFFFFFFFFFFFFFFFFFFFFFFFFFF AND DUP2 PUSH1 0x1 ADD PUSH1 0x0 SWAP1 SLOAD SWAP1 PUSH2 0x100 EXP SWAP1 DIV PUSH20 0xFFFFFFFFFFFFFFFFFFFFFFFFFFFFFFFFFFFFFFFF AND PUSH20 0xFFFFFFFFFFFFFFFFFFFFFFFFFFFFFFFFFFFFFFFF AND SUB PUSH2 0xAAA JUMPI PUSH1 0x40 MLOAD PUSH32 0x8C379A000000000000000000000000000000000000000000000000000000000 DUP2 MSTORE PUSH1 0x4 ADD PUSH2 0xAA1 SWAP1 PUSH2 0x17BD JUMP JUMPDEST PUSH1 0x40 MLOAD DUP1 SWAP2 SUB SWAP1 REVERT JUMPDEST PUSH1 0x1 DUP2 PUSH1 0x7 ADD PUSH1 0x0 PUSH2 0x100 EXP DUP2 SLOAD DUP2 PUSH1 0xFF MUL NOT AND SWAP1 DUP4 ISZERO ISZERO MUL OR SWAP1 SSTORE POP DUP2 DUP2 PUSH1 0x8 ADD DUP2 SWAP1 SSTORE POP DUP3 PUSH32 0xE9E1FB763D1181D822839B60C042AB06725A7641A432446FCC0F79BC7B16F050 DUP4 PUSH1 0x40 MLOAD PUSH2 0xB00 SWAP2 SWAP1 PUSH2 0x17DD JUMP JUMPDEST PUSH1 0x40 MLOAD DUP1 SWAP2 SUB SWAP1 LOG2 POP POP POP JUMP JUMPDEST PUSH1 0x40 MLOAD DUP1 PUSH2 0x140 ADD PUSH1 0x40 MSTORE DUP1 PUSH1 0x0 DUP1 NOT AND DUP2 MSTORE PUSH1 0x20 ADD PUSH1 0x0 PUSH20 0xFFFFFFFFFFFFFFFFFFFFFFFFFFFFFFFFFFFFFFFF AND DUP2 MSTORE PUSH1 0x20 ADD PUSH1 0x60 DUP2 MSTORE PUSH1 0x20 ADD PUSH1 0x0 PUSH20 0xFFFFFFFFFFFFFFFFFFFFFFFFFFFFFFFFFFFFFFFF AND DUP2 MSTORE PUSH1 0x20 ADD PUSH1 0x0 PUSH1 0xFF AND DUP2 MSTORE PUSH1 0x20 ADD PUSH1 0x0 DUP2 MSTORE PUSH1 0x20 ADD PUSH1 0x0 DUP2 MSTORE PUSH1 0x20 ADD PUSH1 0x0 DUP2 MSTORE PUSH1 0x20 ADD PUSH1 0x0 ISZERO ISZERO DUP2 MSTORE PUSH1 0x20 ADD PUSH1 0x0 DUP2 MSTORE POP SWAP1 JUMP JUMPDEST PUSH1 0x0 DUP1 REVERT JUMPDEST PUSH1 0x0 DUP1 REVERT JUMPDEST PUSH1 0x0 DUP2 SWAP1 POP SWAP2 SWAP1 POP JUMP JUMPDEST PUSH2 0xBB1 DUP2 PUSH2 0xB9E JUMP JUMPDEST DUP2 EQ PUSH2 0xBBC JUMPI PUSH1 0x0 DUP1 REVERT JUMPDEST POP JUMP JUMPDEST PUSH1 0x0 DUP2 CALLDATALOAD SWAP1 POP PUSH2 0xBCE DUP2 PUSH2 0xBA8 JUMP JUMPDEST SWAP3 SWAP2 POP POP JUMP JUMPDEST PUSH1 0x0 PUSH1 0x20 DUP3 DUP5 SUB SLT ISZERO PUSH2 0xBEA JUMPI PUSH2 0xBE9 PUSH2 0xB94 JUMP JUMPDEST JUMPDEST PUSH1 0x0 PUSH2 0xBF8 DUP5 DUP3 DUP6 ADD PUSH2 0xBBF JUMP JUMPDEST SWAP2 POP POP SWAP3 SWAP2 POP POP JUMP JUMPDEST PUSH2 0xC0A DUP2 PUSH2 0xB9E JUMP JUMPDEST DUP3 MSTORE POP POP JUMP JUMPDEST PUSH1 0x0 PUSH20 0xFFFFFFFFFFFFFFFFFFFFFFFFFFFFFFFFFFFFFFFF DUP3 AND SWAP1 POP SWAP2 SWAP1 POP JUMP JUMPDEST PUSH1 0x0 PUSH2 0xC3B DUP3 PUSH2 0xC10 JUMP JUMPDEST SWAP1 POP SWAP2 SWAP1 POP JUMP JUMPDEST PUSH2 0xC4B DUP2 PUSH2 0xC30 JUMP JUMPDEST DUP3 MSTORE POP POP JUMP JUMPDEST PUSH1 0x0 DUP2 MLOAD SWAP1 POP SWAP2 SWAP1 POP JUMP JUMPDEST PUSH1 0x0 DUP3 DUP3 MSTORE PUSH1 0x20 DUP3 ADD SWAP1 POP SWAP3 SWAP2 POP POP JUMP JUMPDEST PUSH1 0x0 JUMPDEST DUP4 DUP2 LT ISZERO PUSH2 0xC8B JUMPI DUP1 DUP3 ADD MLOAD DUP2 DUP5 ADD MSTORE PUSH1 0x20 DUP2 ADD SWAP1 POP PUSH2 0xC70 JUMP JUMPDEST PUSH1 0x0 DUP5 DUP5 ADD MSTORE POP POP POP POP JUMP JUMPDEST PUSH1 0x0 PUSH1 0x1F NOT PUSH1 0x1F DUP4 ADD AND SWAP1 POP SWAP2 SWAP1 POP JUMP JUMPDEST PUSH1 0x0 PUSH2 0xCB3 DUP3 PUSH2 0xC51 JUMP JUMPDEST PUSH2 0xCBD DUP2 DUP6 PUSH2 0xC5C JUMP JUMPDEST SWAP4 POP PUSH2 0xCCD DUP2 DUP6 PUSH1 0x20 DUP7 ADD PUSH2 0xC6D JUMP JUMPDEST PUSH2 0xCD6 DUP2 PUSH2 0xC97 JUMP JUMPDEST DUP5 ADD SWAP2 POP POP SWAP3 SWAP2 POP POP JUMP JUMPDEST PUSH1 0x0 PUSH1 0xFF DUP3 AND SWAP1 POP SWAP2 SWAP1 POP JUMP JUMPDEST PUSH2 0xCF7 DUP2 PUSH2 0xCE1 JUMP JUMPDEST DUP3 MSTORE POP POP JUMP JUMPDEST PUSH1 0x0 DUP2 SWAP1 POP SWAP2 SWAP1 POP JUMP JUMPDEST PUSH2 0xD10 DUP2 PUSH2 0xCFD JUMP JUMPDEST DUP3 MSTORE POP POP JUMP JUMPDEST PUSH1 0x0 DUP2 ISZERO ISZERO SWAP1 POP SWAP2 SWAP1 POP JUMP JUMPDEST PUSH2 0xD2B DUP2 PUSH2 0xD16 JUMP JUMPDEST DUP3 MSTORE POP POP JUMP JUMPDEST PUSH1 0x0 DUP2 SWAP1 POP SWAP2 SWAP1 POP JUMP JUMPDEST PUSH2 0xD44 DUP2 PUSH2 0xD31 JUMP JUMPDEST DUP3 MSTORE POP POP JUMP JUMPDEST PUSH1 0x0 PUSH2 0x140 DUP3 ADD SWAP1 POP PUSH2 0xD60 PUSH1 0x0 DUP4 ADD DUP14 PUSH2 0xC01 JUMP JUMPDEST PUSH2 0xD6D PUSH1 0x20 DUP4 ADD DUP13 PUSH2 0xC42 JUMP JUMPDEST DUP2 DUP2 SUB PUSH1 0x40 DUP4 ADD MSTORE PUSH2 0xD7F DUP2 DUP12 PUSH2 0xCA8 JUMP JUMPDEST SWAP1 POP PUSH2 0xD8E PUSH1 0x60 DUP4 ADD DUP11 PUSH2 0xC42 JUMP JUMPDEST PUSH2 0xD9B PUSH1 0x80 DUP4 ADD DUP10 PUSH2 0xCEE JUMP JUMPDEST PUSH2 0xDA8 PUSH1 0xA0 DUP4 ADD DUP9 PUSH2 0xD07 JUMP JUMPDEST PUSH2 0xDB5 PUSH1 0xC0 DUP4 ADD DUP8 PUSH2 0xD07 JUMP JUMPDEST PUSH2 0xDC2 PUSH1 0xE0 DUP4 ADD DUP7 PUSH2 0xD07 JUMP JUMPDEST PUSH2 0xDD0 PUSH2 0x100 DUP4 ADD DUP6 PUSH2 0xD22 JUMP JUMPDEST PUSH2 0xDDE PUSH2 0x120 DUP4 ADD DUP5 PUSH2 0xD3B JUMP JUMPDEST SWAP12 SWAP11 POP POP POP POP POP POP POP POP POP POP POP JUMP JUMPDEST PUSH1 0x0 PUSH1 0x20 DUP3 ADD SWAP1 POP PUSH2 0xE02 PUSH1 0x0 DUP4 ADD DUP5 PUSH2 0xD07 JUMP JUMPDEST SWAP3 SWAP2 POP POP JUMP JUMPDEST PUSH2 0xE11 DUP2 PUSH2 0xB9E JUMP JUMPDEST DUP3 MSTORE POP POP JUMP JUMPDEST PUSH2 0xE20 DUP2 PUSH2 0xC30 JUMP JUMPDEST DUP3 MSTORE POP POP JUMP JUMPDEST PUSH1 0x0 DUP3 DUP3 MSTORE PUSH1 0x20 DUP3 ADD SWAP1 POP SWAP3 SWAP2 POP POP JUMP JUMPDEST PUSH1 0x0 PUSH2 0xE42 DUP3 PUSH2 0xC51 JUMP JUMPDEST PUSH2 0xE4C DUP2 DUP6 PUSH2 0xE26 JUMP JUMPDEST SWAP4 POP PUSH2 0xE5C DUP2 DUP6 PUSH1 0x20 DUP7 ADD PUSH2 0xC6D JUMP JUMPDEST PUSH2 0xE65 DUP2 PUSH2 0xC97 JUMP JUMPDEST DUP5 ADD SWAP2 POP POP SWAP3 SWAP2 POP POP JUMP JUMPDEST PUSH2 0xE79 DUP2 PUSH2 0xCE1 JUMP JUMPDEST DUP3 MSTORE POP POP JUMP JUMPDEST PUSH2 0xE88 DUP2 PUSH2 0xCFD JUMP JUMPDEST DUP3 MSTORE POP POP JUMP JUMPDEST PUSH2 0xE97 DUP2 PUSH2 0xD16 JUMP JUMPDEST DUP3 MSTORE POP POP JUMP JUMPDEST PUSH2 0xEA6 DUP2 PUSH2 0xD31 JUMP JUMPDEST DUP3 MSTORE POP POP JUMP JUMPDEST PUSH1 0x0 PUSH2 0x140 DUP4 ADD PUSH1 0x0 DUP4 ADD MLOAD PUSH2 0xEC5 PUSH1 0x0 DUP7 ADD DUP3 PUSH2 0xE08 JUMP JUMPDEST POP PUSH1 0x20 DUP4 ADD MLOAD PUSH2 0xED8 PUSH1 0x20 DUP7 ADD DUP3 PUSH2 0xE17 JUMP JUMPDEST POP PUSH1 0x40 DUP4 ADD MLOAD DUP5 DUP3 SUB PUSH1 0x40 DUP7 ADD MSTORE PUSH2 0xEF0 DUP3 DUP3 PUSH2 0xE37 JUMP JUMPDEST SWAP2 POP POP PUSH1 0x60 DUP4 ADD MLOAD PUSH2 0xF05 PUSH1 0x60 DUP7 ADD DUP3 PUSH2 0xE17 JUMP JUMPDEST POP PUSH1 0x80 DUP4 ADD MLOAD PUSH2 0xF18 PUSH1 0x80 DUP7 ADD DUP3 PUSH2 0xE70 JUMP JUMPDEST POP PUSH1 0xA0 DUP4 ADD MLOAD PUSH2 0xF2B PUSH1 0xA0 DUP7 ADD DUP3 PUSH2 0xE7F JUMP JUMPDEST POP PUSH1 0xC0 DUP4 ADD MLOAD PUSH2 0xF3E PUSH1 0xC0 DUP7 ADD DUP3 PUSH2 0xE7F JUMP JUMPDEST POP PUSH1 0xE0 DUP4 ADD MLOAD PUSH2 0xF51 PUSH1 0xE0 DUP7 ADD DUP3 PUSH2 0xE7F JUMP JUMPDEST POP PUSH2 0x100 DUP4 ADD MLOAD PUSH2 0xF66 PUSH2 0x100 DUP7 ADD DUP3 PUSH2 0xE8E JUMP JUMPDEST POP PUSH2 0x120 DUP4 ADD MLOAD PUSH2 0xF7B PUSH2 0x120 DUP7 ADD DUP3 PUSH2 0xE9D JUMP JUMPDEST POP DUP1 SWAP2 POP POP SWAP3 SWAP2 POP POP JUMP JUMPDEST PUSH1 0x0 PUSH1 0x20 DUP3 ADD SWAP1 POP DUP2 DUP2 SUB PUSH1 0x0 DUP4 ADD MSTORE PUSH2 0xFA0 DUP2 DUP5 PUSH2 0xEAC JUMP JUMPDEST SWAP1 POP SWAP3 SWAP2 POP POP JUMP JUMPDEST PUSH1 0x0 DUP1 REVERT JUMPDEST PUSH1 0x0 DUP1 REVERT JUMPDEST PUSH1 0x0 DUP1 REVERT JUMPDEST PUSH1 0x0 DUP1 DUP4 PUSH1 0x1F DUP5 ADD SLT PUSH2 0xFCD JUMPI PUSH2 0xFCC PUSH2 0xFA8 JUMP JUMPDEST JUMPDEST DUP3 CALLDATALOAD SWAP1 POP PUSH8 0xFFFFFFFFFFFFFFFF DUP2 GT ISZERO PUSH2 0xFEA JUMPI PUSH2 0xFE9 PUSH2 0xFAD JUMP JUMPDEST JUMPDEST PUSH1 0x20 DUP4 ADD SWAP2 POP DUP4 PUSH1 0x1 DUP3 MUL DUP4 ADD GT ISZERO PUSH2 0x1006 JUMPI PUSH2 0x1005 PUSH2 0xFB2 JUMP JUMPDEST JUMPDEST SWAP3 POP SWAP3 SWAP1 POP JUMP JUMPDEST PUSH2 0x1016 DUP2 PUSH2 0xC30 JUMP JUMPDEST DUP2 EQ PUSH2 0x1021 JUMPI PUSH1 0x0 DUP1 REVERT JUMPDEST POP JUMP JUMPDEST PUSH1 0x0 DUP2 CALLDATALOAD SWAP1 POP PUSH2 0x1033 DUP2 PUSH2 0x100D JUMP JUMPDEST SWAP3 SWAP2 POP POP JUMP JUMPDEST PUSH2 0x1042 DUP2 PUSH2 0xCE1 JUMP JUMPDEST DUP2 EQ PUSH2 0x104D JUMPI PUSH1 0x0 DUP1 REVERT JUMPDEST POP JUMP JUMPDEST PUSH1 0x0 DUP2 CALLDATALOAD SWAP1 POP PUSH2 0x105F DUP2 PUSH2 0x1039 JUMP JUMPDEST SWAP3 SWAP2 POP POP JUMP JUMPDEST PUSH2 0x106E DUP2 PUSH2 0xCFD JUMP JUMPDEST DUP2 EQ PUSH2 0x1079 JUMPI PUSH1 0x0 DUP1 REVERT JUMPDEST POP JUMP JUMPDEST PUSH1 0x0 DUP2 CALLDATALOAD SWAP1 POP PUSH2 0x108B DUP2 PUSH2 0x1065 JUMP JUMPDEST SWAP3 SWAP2 POP POP JUMP JUMPDEST PUSH1 0x0 DUP1 PUSH1 0x0 DUP1 PUSH1 0x0 DUP1 PUSH1 0x0 PUSH1 0xC0 DUP9 DUP11 SUB SLT ISZERO PUSH2 0x10B0 JUMPI PUSH2 0x10AF PUSH2 0xB94 JUMP JUMPDEST JUMPDEST PUSH1 0x0 PUSH2 0x10BE DUP11 DUP3 DUP12 ADD PUSH2 0xBBF JUMP JUMPDEST SWAP8 POP POP PUSH1 0x20 DUP9 ADD CALLDATALOAD PUSH8 0xFFFFFFFFFFFFFFFF DUP2 GT ISZERO PUSH2 0x10DF JUMPI PUSH2 0x10DE PUSH2 0xB99 JUMP JUMPDEST JUMPDEST PUSH2 0x10EB DUP11 DUP3 DUP12 ADD PUSH2 0xFB7 JUMP JUMPDEST SWAP7 POP SWAP7 POP POP PUSH1 0x40 PUSH2 0x10FE DUP11 DUP3 DUP12 ADD PUSH2 0x1024 JUMP JUMPDEST SWAP5 POP POP PUSH1 0x60 PUSH2 0x110F DUP11 DUP3 DUP12 ADD PUSH2 0x1050 JUMP JUMPDEST SWAP4 POP POP PUSH1 0x80 PUSH2 0x1120 DUP11 DUP3 DUP12 ADD PUSH2 0x107C JUMP JUMPDEST SWAP3 POP POP PUSH1 0xA0 PUSH2 0x1131 DUP11 DUP3 DUP12 ADD PUSH2 0x107C JUMP JUMPDEST SWAP2 POP POP SWAP3 SWAP6 SWAP9 SWAP2 SWAP5 SWAP8 POP SWAP3 SWAP6 POP JUMP JUMPDEST PUSH1 0x0 PUSH1 0x20 DUP3 DUP5 SUB SLT ISZERO PUSH2 0x1156 JUMPI PUSH2 0x1155 PUSH2 0xB94 JUMP JUMPDEST JUMPDEST PUSH1 0x0 PUSH2 0x1164 DUP5 DUP3 DUP6 ADD PUSH2 0x1024 JUMP JUMPDEST SWAP2 POP POP SWAP3 SWAP2 POP POP JUMP JUMPDEST PUSH1 0x0 DUP2 MLOAD SWAP1 POP SWAP2 SWAP1 POP JUMP JUMPDEST PUSH1 0x0 DUP3 DUP3 MSTORE PUSH1 0x20 DUP3 ADD SWAP1 POP SWAP3 SWAP2 POP POP JUMP JUMPDEST PUSH1 0x0 DUP2 SWAP1 POP PUSH1 0x20 DUP3 ADD SWAP1 POP SWAP2 SWAP1 POP JUMP JUMPDEST PUSH1 0x0 PUSH2 0x11A5 DUP4 DUP4 PUSH2 0xE08 JUMP JUMPDEST PUSH1 0x20 DUP4 ADD SWAP1 POP SWAP3 SWAP2 POP POP JUMP JUMPDEST PUSH1 0x0 PUSH1 0x20 DUP3 ADD SWAP1 POP SWAP2 SWAP1 POP JUMP JUMPDEST PUSH1 0x0 PUSH2 0x11C9 DUP3 PUSH2 0x116D JUMP JUMPDEST PUSH2 0x11D3 DUP2 DUP6 PUSH2 0x1178 JUMP JUMPDEST SWAP4 POP PUSH2 0x11DE DUP4 PUSH2 0x1189 JUMP JUMPDEST DUP1 PUSH1 0x0 JUMPDEST DUP4 DUP2 LT ISZERO PUSH2 0x120F JUMPI DUP2 MLOAD PUSH2 0x11F6 DUP9 DUP3 PUSH2 0x1199 JUMP JUMPDEST SWAP8 POP PUSH2 0x1201 DUP4 PUSH2 0x11B1 JUMP JUMPDEST SWAP3 POP POP PUSH1 0x1 DUP2 ADD SWAP1 POP PUSH2 0x11E2 JUMP JUMPDEST POP DUP6 SWAP4 POP POP POP POP SWAP3 SWAP2 POP POP JUMP JUMPDEST PUSH1 0x0 PUSH1 0x20 DUP3 ADD SWAP1 POP DUP2 DUP2 SUB PUSH1 0x0 DUP4 ADD MSTORE PUSH2 0x1236 DUP2 DUP5 PUSH2 0x11BE JUMP JUMPDEST SWAP1 POP SWAP3 SWAP2 POP POP JUMP JUMPDEST PUSH1 0x0 PUSH1 0x20 DUP3 DUP5 SUB SLT ISZERO PUSH2 0x1254 JUMPI PUSH2 0x1253 PUSH2 0xB94 JUMP JUMPDEST JUMPDEST PUSH1 0x0 PUSH2 0x1262 DUP5 DUP3 DUP6 ADD PUSH2 0x107C JUMP JUMPDEST SWAP2 POP POP SWAP3 SWAP2 POP POP JUMP JUMPDEST PUSH1 0x0 PUSH1 0x20 DUP3 ADD SWAP1 POP PUSH2 0x1280 PUSH1 0x0 DUP4 ADD DUP5 PUSH2 0xC01 JUMP JUMPDEST SWAP3 SWAP2 POP POP JUMP JUMPDEST PUSH2 0x128F DUP2 PUSH2 0xD31 JUMP JUMPDEST DUP2 EQ PUSH2 0x129A JUMPI PUSH1 0x0 DUP1 REVERT JUMPDEST POP JUMP JUMPDEST PUSH1 0x0 DUP2 CALLDATALOAD SWAP1 POP PUSH2 0x12AC DUP2 PUSH2 0x1286 JUMP JUMPDEST SWAP3 SWAP2 POP POP JUMP JUMPDEST PUSH1 0x0 DUP1 PUSH1 0x40 DUP4 DUP6 SUB SLT ISZERO PUSH2 0x12C9 JUMPI PUSH2 0x12C8 PUSH2 0xB94 JUMP JUMPDEST JUMPDEST PUSH1 0x0 PUSH2 0x12D7 DUP6 DUP3 DUP7 ADD PUSH2 0xBBF JUMP JUMPDEST SWAP3 POP POP PUSH1 0x20 PUSH2 0x12E8 DUP6 DUP3 DUP7 ADD PUSH2 0x129D JUMP JUMPDEST SWAP2 POP POP SWAP3 POP SWAP3 SWAP1 POP JUMP JUMPDEST PUSH32 0x4E487B7100000000000000000000000000000000000000000000000000000000 PUSH1 0x0 MSTORE PUSH1 0x22 PUSH1 0x4 MSTORE PUSH1 0x24 PUSH1 0x0 REVERT JUMPDEST PUSH1 0x0 PUSH1 0x2 DUP3 DIV SWAP1 POP PUSH1 0x1 DUP3 AND DUP1 PUSH2 0x1339 JUMPI PUSH1 0x7F DUP3 AND SWAP2 POP JUMPDEST PUSH1 0x20 DUP3 LT DUP2 SUB PUSH2 0x134C JUMPI PUSH2 0x134B PUSH2 0x12F2 JUMP JUMPDEST JUMPDEST POP SWAP2 SWAP1 POP JUMP JUMPDEST PUSH32 0x7369676E616C2065786973747300000000000000000000000000000000000000 PUSH1 0x0 DUP3 ADD MSTORE POP JUMP JUMPDEST PUSH1 0x0 PUSH2 0x1388 PUSH1 0xD DUP4 PUSH2 0xC5C JUMP JUMPDEST SWAP2 POP PUSH2 0x1393 DUP3 PUSH2 0x1352 JUMP JUMPDEST PUSH1 0x20 DUP3 ADD SWAP1 POP SWAP2 SWAP1 POP JUMP JUMPDEST PUSH1 0x0 PUSH1 0x20 DUP3 ADD SWAP1 POP DUP2 DUP2 SUB PUSH1 0x0 DUP4 ADD MSTORE PUSH2 0x13B7 DUP2 PUSH2 0x137B JUMP JUMPDEST SWAP1 POP SWAP2 SWAP1 POP JUMP JUMPDEST PUSH32 0x4E487B7100000000000000000000000000000000000000000000000000000000 PUSH1 0x0 MSTORE PUSH1 0x41 PUSH1 0x4 MSTORE PUSH1 0x24 PUSH1 0x0 REVERT JUMPDEST PUSH1 0x0 DUP2 SWAP1 POP DUP2 PUSH1 0x0 MSTORE PUSH1 0x20 PUSH1 0x0 KECCAK256 SWAP1 POP SWAP2 SWAP1 POP JUMP JUMPDEST PUSH1 0x0 PUSH1 0x20 PUSH1 0x1F DUP4 ADD DIV SWAP1 POP SWAP2 SWAP1 POP JUMP JUMPDEST PUSH1 0x0 DUP3 DUP3 SHL SWAP1 POP SWAP3 SWAP2 POP POP JUMP JUMPDEST PUSH1 0x0 PUSH1 0x8 DUP4 MUL PUSH2 0x144F PUSH32 0xFFFFFFFFFFFFFFFFFFFFFFFFFFFFFFFFFFFFFFFFFFFFFFFFFFFFFFFFFFFFFFFF DUP3 PUSH2 0x1412 JUMP JUMPDEST PUSH2 0x1459 DUP7 DUP4 PUSH2 0x1412 JUMP JUMPDEST SWAP6 POP DUP1 NOT DUP5 AND SWAP4 POP DUP1 DUP7 AND DUP5 OR SWAP3 POP POP POP SWAP4 SWAP3 POP POP POP JUMP JUMPDEST PUSH1 0x0 DUP2 SWAP1 POP SWAP2 SWAP1 POP JUMP JUMPDEST PUSH1 0x0 PUSH2 0x1496 PUSH2 0x1491 PUSH2 0x148C DUP5 PUSH2 0xCFD JUMP JUMPDEST PUSH2 0x1471 JUMP JUMPDEST PUSH2 0xCFD JUMP JUMPDEST SWAP1 POP SWAP2 SWAP1 POP JUMP JUMPDEST PUSH1 0x0 DUP2 SWAP1 POP SWAP2 SWAP1 POP JUMP JUMPDEST PUSH2 0x14B0 DUP4 PUSH2 0x147B JUMP JUMPDEST PUSH2 0x14C4 PUSH2 0x14BC DUP3 PUSH2 0x149D JUMP JUMPDEST DUP5 DUP5 SLOAD PUSH2 0x141F JUMP JUMPDEST DUP3 SSTORE POP POP POP POP JUMP JUMPDEST PUSH1 0x0 SWAP1 JUMP JUMPDEST PUSH2 0x14D9 PUSH2 0x14CC JUMP JUMPDEST PUSH2 0x14E4 DUP2 DUP5 DUP5 PUSH2 0x14A7 JUMP JUMPDEST POP POP POP JUMP JUMPDEST JUMPDEST DUP2 DUP2 LT ISZERO PUSH2 0x1508 JUMPI PUSH2 0x14FD PUSH1 0x0 DUP3 PUSH2 0x14D1 JUMP JUMPDEST PUSH1 0x1 DUP2 ADD SWAP1 POP PUSH2 0x14EA JUMP JUMPDEST POP POP JUMP JUMPDEST PUSH1 0x1F DUP3 GT ISZERO PUSH2 0x154D JUMPI PUSH2 0x151E DUP2 PUSH2 0x13ED JUMP JUMPDEST PUSH2 0x1527 DUP5 PUSH2 0x1402 JUMP JUMPDEST DUP2 ADD PUSH1 0x20 DUP6 LT ISZERO PUSH2 0x1536 JUMPI DUP2 SWAP1 POP JUMPDEST PUSH2 0x154A PUSH2 0x1542 DUP6 PUSH2 0x1402 JUMP JUMPDEST DUP4 ADD DUP3 PUSH2 0x14E9 JUMP JUMPDEST POP POP JUMPDEST POP POP POP JUMP JUMPDEST PUSH1 0x0 DUP3 DUP3 SHR SWAP1 POP SWAP3 SWAP2 POP POP JUMP JUMPDEST PUSH1 0x0 PUSH2 0x1570 PUSH1 0x0 NOT DUP5 PUSH1 0x8 MUL PUSH2 0x1552 JUMP JUMPDEST NOT DUP1 DUP4 AND SWAP2 POP POP SWAP3 SWAP2 POP POP JUMP JUMPDEST PUSH1 0x0 PUSH2 0x1589 DUP4 DUP4 PUSH2 0x155F JUMP JUMPDEST SWAP2 POP DUP3 PUSH1 0x2 MUL DUP3 OR SWAP1 POP SWAP3 SWAP2 POP POP JUMP JUMPDEST PUSH2 0x15A2 DUP3 PUSH2 0xC51 JUMP JUMPDEST PUSH8 0xFFFFFFFFFFFFFFFF DUP2 GT ISZERO PUSH2 0x15BB JUMPI PUSH2 0x15BA PUSH2 0x13BE JUMP JUMPDEST JUMPDEST PUSH2 0x15C5 DUP3 SLOAD PUSH2 0x1321 JUMP JUMPDEST PUSH2 0x15D0 DUP3 DUP3 DUP6 PUSH2 0x150C JUMP JUMPDEST PUSH1 0x0 PUSH1 0x20 SWAP1 POP PUSH1 0x1F DUP4 GT PUSH1 0x1 DUP2 EQ PUSH2 0x1603 JUMPI PUSH1 0x0 DUP5 ISZERO PUSH2 0x15F1 JUMPI DUP3 DUP8 ADD MLOAD SWAP1 POP JUMPDEST PUSH2 0x15FB DUP6 DUP3 PUSH2 0x157D JUMP JUMPDEST DUP7 SSTORE POP PUSH2 0x1663 JUMP JUMPDEST PUSH1 0x1F NOT DUP5 AND PUSH2 0x1611 DUP7 PUSH2 0x13ED JUMP JUMPDEST PUSH1 0x0 JUMPDEST DUP3 DUP2 LT ISZERO PUSH2 0x1639 JUMPI DUP5 DUP10 ADD MLOAD DUP3 SSTORE PUSH1 0x1 DUP3 ADD SWAP2 POP PUSH1 0x20 DUP6 ADD SWAP5 POP PUSH1 0x20 DUP2 ADD SWAP1 POP PUSH2 0x1614 JUMP JUMPDEST DUP7 DUP4 LT ISZERO PUSH2 0x1656 JUMPI DUP5 DUP10 ADD MLOAD PUSH2 0x1652 PUSH1 0x1F DUP10 AND DUP3 PUSH2 0x155F JUMP JUMPDEST DUP4 SSTORE POP JUMPDEST PUSH1 0x1 PUSH1 0x2 DUP9 MUL ADD DUP9 SSTORE POP POP POP JUMPDEST POP POP POP POP POP POP JUMP JUMPDEST DUP3 DUP2 DUP4 CALLDATACOPY PUSH1 0x0 DUP4 DUP4 ADD MSTORE POP POP POP JUMP JUMPDEST PUSH1 0x0 PUSH2 0x1686 DUP4 DUP6 PUSH2 0xC5C JUMP JUMPDEST SWAP4 POP PUSH2 0x1693 DUP4 DUP6 DUP5 PUSH2 0x166B JUMP JUMPDEST PUSH2 0x169C DUP4 PUSH2 0xC97 JUMP JUMPDEST DUP5 ADD SWAP1 POP SWAP4 SWAP3 POP POP POP JUMP JUMPDEST PUSH1 0x0 PUSH1 0x20 DUP3 ADD SWAP1 POP DUP2 DUP2 SUB PUSH1 0x0 DUP4 ADD MSTORE PUSH2 0x16C2 DUP2 DUP5 DUP7 PUSH2 0x167A JUMP JUMPDEST SWAP1 POP SWAP4 SWAP3 POP POP POP JUMP JUMPDEST PUSH32 0x4E487B7100000000000000000000000000000000000000000000000000000000 PUSH1 0x0 MSTORE PUSH1 0x32 PUSH1 0x4 MSTORE PUSH1 0x24 PUSH1 0x0 REVERT JUMPDEST PUSH32 0x4E487B7100000000000000000000000000000000000000000000000000000000 PUSH1 0x0 MSTORE PUSH1 0x11 PUSH1 0x4 MSTORE PUSH1 0x24 PUSH1 0x0 REVERT JUMPDEST PUSH1 0x0 PUSH2 0x1734 DUP3 PUSH2 0xCFD JUMP JUMPDEST SWAP2 POP PUSH32 0xFFFFFFFFFFFFFFFFFFFFFFFFFFFFFFFFFFFFFFFFFFFFFFFFFFFFFFFFFFFFFFFF DUP3 SUB PUSH2 0x1766 JUMPI PUSH2 0x1765 PUSH2 0x16FA JUMP JUMPDEST JUMPDEST PUSH1 0x1 DUP3 ADD SWAP1 POP SWAP2 SWAP1 POP JUMP JUMPDEST PUSH32 0x7369676E616C206D697373696E67000000000000000000000000000000000000 PUSH1 0x0 DUP3 ADD MSTORE POP JUMP JUMPDEST PUSH1 0x0 PUSH2 0x17A7 PUSH1 0xE DUP4 PUSH2 0xC5C JUMP JUMPDEST SWAP2 POP PUSH2 0x17B2 DUP3 PUSH2 0x1771 JUMP JUMPDEST PUSH1 0x20 DUP3 ADD SWAP1 POP SWAP2 SWAP1 POP JUMP JUMPDEST PUSH1 0x0 PUSH1 0x20 DUP3 ADD SWAP1 POP DUP2 DUP2 SUB PUSH1 0x0 DUP4 ADD MSTORE PUSH2 0x17D6 DUP2 PUSH2 0x179A JUMP JUMPDEST SWAP1 POP SWAP2 SWAP1 POP JUMP JUMPDEST PUSH1 0x0 PUSH1 0x20 DUP3 ADD SWAP1 POP PUSH2 0x17F2 PUSH1 0x0 DUP4 ADD DUP5 PUSH2 0xD3B JUMP JUMPDEST SWAP3 SWAP2 POP POP JUMP INVALID LOG2 PUSH5 0x6970667358 0x22 SLT KECCAK256 0xF 0xE9 CALLDATASIZE SLT REVERT LT 0xB0 0xFB ADD 0xAC 0xCC 0xDD MSIZE SWAP8 0xE0 SSTORE JUMP DUP11 JUMPDEST SGT 0xE1 SWAP15 CALLER DUP5 CALLER PUSH14 0x57041A67608264736F6C63430008 EQ STOP CALLER "},"methodIdentifiers":{"getSignal(bytes32)":"66e92db7","getSignalCount()":"592ee87a","getSignalsByPublisher(address)":"96f5e49b","markExecuted(bytes32,int256)":"fee923e2","publishSignal(bytes32,string,address,uint8,uint256,uint256)":"8eb63be7","signalIds(uint256)":"e8b21a08","signals(bytes32)":"107494eb"}}}}}